:100000000C9429020C945A020C945A020C945A0231
:100010000C945A020C945A020C945A020C945A02F0
:100020000C945A020C94DD450C94DD450C94DD458E
:100030000C945A020C945A020C945A020C944446A2
:100040000C945A020C945A020C945A020C945A02C0
:100050000C945A020C945A020C945A020C94434485
:100060000C945A020C94B3450C9489450C945A0292
:100070000C945A020C945A020C945A020C945A0290
:100080000C945A020C945A020C945A020C945A0280
:100090000C945F450C9435450C945A020C945A020A
:1000A0000C945A020C945A020C945A020C945A0260
:1000B0000C945A020C945A020C945A020C945A0250
:1000C0000C945A020C945A020C945A020C940B454C
:1000D0000C94E1440C945A020C94B7440C948D4453
:1000E0000C945A020C949A260C944D1B0C948C2C54
:1000F0000C943C220C9481170C94731A0C941C08D9
:100100000C945A090C94972B0C94F1180C94F1262A
:100110000C94E5170C94E8270C948A220C94ED18A3
:100120000C94E3160C948A1A0C947A1A0C940D19F8
:100130000C94F4090C940B250C943A030C947D094F
:100140000C94FF020C944E1A0C9483090C94A30790
:100150000C94561A0C94FA070C94123A0C946B25D2
:100160000C94A61A0C943A090C9421180C94C918F2
:100170000C94DF090C94AE170C9409030C94F91835
:100180000C942C030C94A4070C94D62A0C94E00233
:100190000C9409190C9486250C94DB170C94783F69
:1001A0000C94CD180C94752F0C94D5180C94961AA9
:1001B0000C942D190C946D160C94B60A0C94F6241C
:1001C0000C94AB0A0C94C5180C9421190C94FA1ECB
:1001D0000C94E82F0C943F030C9435190C94FD18E3
:1001E0000C94B72C0C947D200C9425190C94720956
:1001F0000C94950A0C948E1A0C947F0A0C94911707
:100200000C94D9180C94D1180C945F1C0C94EA0728
:100210000C9405190C948D1A0C948E070C941E03E3
:100220000C9421220C9468220C940D030C9432033C
:100230000C94E52B0C94BF080C94DD180C94612CE5
:100240000C94E1180C946E200C9436030C947208F4
:100250000C94F5180C94E24E0C94E8230C94B91805
:100260000C942B1B0C941A030C9454390C94B20963
:100270000C94E5180C9476360C947E1A0C94280392
:100280000C9424030C9479360C9467140C94B92CB8
:100290000C9412280C94BD180C9400470C940E0872
:1002A0000C94DA160C9473300C9428390C94591A67
:1002B0000C9415190C94B52B0C94C01C0C94C322EF
:1002C0000C94DE1A0C94C9270C9414030C9419197D
:1002D0000C94C1180C94921A0C9439190C9411199D
:1002E0000C941B0C0C9405030C9411030C94E9184A
:1002F0000C9431190C9444030C9429190C94541F38
:100300000C9440030C9401190C941D190C94DC02FC
:100310000C9400290C94881A7C3C3E5E2B3D3F2FA8
:100320005B5D3B2C2A225C0000002100240027009A
:100330002A002D00300033000101000004010701F4
:100340000A0100002200250028002B002E003100A9
:10035000340002010000050108010B01000020002B
:100360002300260029002C002F003200000100008D
:100370000301060109010505050507050808080828
:10038000020202020A0A080804040404010101012D
:100390000101010103030303030303030407070728
:1003A0000C0C0C0C0C0C0C0C0202020206060606CD
:1003B000060606060B0B0B0B0B0B0B0B0A050501B8
:1003C0000210202008081020401020408002010266
:1003D000010804020101020408102040808040202E
:1003E0001008040201800402018040201008040269
:1003F00001080402010102040810204080010204E7
:10040000081020408008408000000A0B02090C0DF3
:100410000E080703040100000000000000000000B7
:1004200000000000000000000000000000000000CC
:100430000000000012111000000000000000000089
:100440000000000000000000000000000000004765
:10045000E24E11241FBECFEFD1E2DEBFCDBF00E0E0
:100460000CBF17E0A0E0B2E0E0E4FAEA00E00BBF66
:1004700002C007900D92AA3BB107D9F724E1AAEB7D
:10048000B7E001C01D92A53DB207E1F712E0C8E256
:10049000D2E000E006C021970109802FFE010E94F2
:1004A000974FC732D10780E00807A9F70E947A4921
:1004B0000C940E550C940000FC01A089B18982E0D7
:1004C0008C93A485B5851C92A685B7858FEC8C93FB
:1004D000108EA489B5896C93A289B3898C918061AF
:1004E0008C93A289B3898C9188608C93A289B389FB
:1004F0008C9180688C930288F389E02D80818F7DB8
:10050000808308958091A90F9091AA0F009711F40C
:1005100080E02FC0DC01ED91FC910688F789E02D89
:1005200019952091CC0F3091CD0F81111FC0232B35
:1005300079F78DEF9FEF9093CD0F8093CC0F809143
:10054000A90F9091AA0FDC01ED91FC910680F78133
:10055000E02D19958091A90F9091AA0FDC01ED91E2
:10056000FC910488F589E02D1995D2CF81E0232BE9
:1005700079F60895CF93DF93EC01FA013296E60FF6
:10058000F71FDC019D012C1B3D0BCF01861B970B38
:100590004D91442311F04193F5CFAC01421B530B15
:1005A000640F751FFB013297308361507109FB01A5
:1005B0002083DF91CF910895FC01818D928D089564
:1005C00008958150823108F05AC0E82FF0E0882762
:1005D000E351FD4F8F4F0C94974F0D031103FF0212
:1005E000050309033F0314031A031E03240328030E
:1005F0002C03320336033F033A0340034403809144
:1006000080008F77809380000895809180008F7D97
:10061000F9CF80918000877FF5CF84B58F7784BD37
:10062000089584B58F7DFBCF8091B0008F77809344
:10063000B00008958091B0008F7DF9CF8091900037
:100640008F77809390000895809190008F7DF9CFEF
:1006500080919000877FF5CF8091A0008F77809365
:10066000A00008958091A0008F7DF9CF8091A00017
:10067000877FF5CF809120018F77809320010895A7
:10068000809120018F7DF9CF80912001877FF5CF68
:10069000CF93DF93282F30E0F901E85FFB4F84917F
:1006A000F901E154FC4FD491F901EA58FC4FC4918F
:1006B000CC23A1F081110E94E102EC2FF0E0EE0FBB
:1006C000FF1FE45AFC4FA591B491EC91ED2381E01A
:1006D00090E009F480E0DF91CF91089580E090E010
:1006E000FACF1F93CF93DF93282F30E0F901E85F13
:1006F000FB4F8491F901E154FC4FD491F901EA5880
:10070000FC4FC491CC23A9F0162F81110E94E10265
:10071000EC2FF0E0EE0FFF1FEE5BFC4FA591B491C4
:100720008FB7F894EC91111108C0D095DE23DC93BB
:100730008FBFDF91CF911F910895DE2BF8CFCF931C
:10074000DF9390E0FC01E154FC4F24918A589C4FC8
:10075000FC0184918823D1F090E0880F991FFC015F
:10076000E85DFC4FA591B491FC01EE5BFC4FC59197
:10077000D491623071F49FB7F8943C91822F8095A8
:1007800083238C93E8812E2B28839FBFDF91CF9109
:1007900008958FB7F894EC912E2B2C938FBFF6CF42
:1007A00090917B00977F90937B0086538064809329
:1007B0007C0080917A00806480937A0080917A0036
:1007C00086FDFCCF809178009091790008953FB725
:1007D000F89480914A0A90914B0AA0914C0AB091EA
:1007E0004D0A26B5A89B05C02F3F19F00196A11D03
:1007F000B11D3FBFBA2FA92F982F8827BC01CD016B
:10080000620F711D811D911D42E0660F771F881FC9
:10081000991F4A95D1F708958F929F92AF92BF92F8
:10082000CF92DF92EF92FF920F931F93CF93DF93BC
:10083000EC01888199818E01055F1E4F009709F4B4
:100840005CC04CE25AE060E070E0FE01E95FFE4F00
:1008500040835183628373834FE452E160E070E030
:10086000D8014D935D936D937C93139766E00E943E
:100870005C028E818F3F39F061E00E949F0360E04F
:100880008E810E9471030E94E7036B017C018C81C1
:100890009D81DC01ED91FC910084F185E02D19959D
:1008A000181619066CF40E94E7036B017C018C8119
:1008B0009D81DC01ED91FC910284F385E02D199579
:1008C0000E94E7036C197D098E099F09F801808059
:1008D0009180A280B380681579058A059B05B8F2DE
:1008E000DF91CF911F910F91FF90EF90DF90CF900C
:1008F000BF90AF909F908F900895EA81FB813097D1
:1009000009F4B7CF4CE25AE060E070E0DE01A95F85
:10091000BE4F4D935D936D937C9313974FE452E1DB
:1009200060E070E0D8014D935D936D937C931397D5
:10093000138E128E118E108E178A168A8DE991E011
:10094000958F848F848596EF980F943048F02EEC25
:10095000280F243028F022EC280F283008F055C04A
:100960002DEB30E0378B268B2BE931E0318F208F58
:100970002CE231E0338F228F943050F02EEC280F90
:10098000243030F022EC280FB0E0A0E0283010F442
:10099000A8E6B0E02C91943028F032EC380F3830D3
:1009A00008F462C031E0232B943048F09EEC980F9D
:1009B000943028F08E53B0E0A0E0883010F4A8E620
:1009C000B0E02C93248536EF320F343008F44EC05B
:1009D0008EEC820F843008F449C082EC820F88309C
:1009E00008F447C090E080E0948B838B343008F0AB
:1009F00043C02650330B81E001C0880F2A95EAF7E7
:100A0000858B848D958D0197F1F7828D938D892B40
:100A100009F42FCF4091A20C5091A30CE417F507D5
:100A200009F427CF4115510569F0DA0153962D914C
:100A30003C91D9019C91DA0155968C91809589233E
:100A4000D9018C93868D8E7F868F1092A10C109287
:100A5000A00CF093A30CE093A20CA389B4898C9111
:100A60009589892B8C9305CF34E09DCF8BE690E060
:100A7000BBCF8DE690E0B8CF88E0223309F4C0CF39
:100A800084E0233309F4BCCF82E0243309F4B8CFE7
:100A900082EC820F883018F42E53330BACCF81E0F8
:100AA000AFCF8F929F92AF92BF92CF92DF92EF9291
:100AB000FF924B015C010E94E7036B017C010E94E5
:100AC000E7036C197D098E099F09683E7340810513
:100AD0009105A8F321E0821A9108A108B10888EED7
:100AE000C80E83E0D81EE11CF11C81149104A104FE
:100AF000B10429F7FF90EF90DF90CF90BF90AF90B7
:100B00009F908F9008952FB7F8946091460A709146
:100B1000470A8091480A9091490A2FBF08958F9201
:100B20009F92AF92BF92CF92DF92EF92FF92CF93BC
:100B3000DF93EC010E9483054B015C018091A90FBA
:100B40009091AA0FDC01ED91FC910084F185E02DDC
:100B50001995892BB9F40E9483056B017C01C81893
:100B6000D908EA08FB082091B10F3091B20FA8EE26
:100B7000B3E00E94744FC616D706E806F906F0F2F5
:100B800080E00DC08091A90F9091AA0FDC01ED913A
:100B9000FC910284F385E02D1995888381E0DF9133
:100BA000CF91FF90EF90DF90CF90BF90AF909F904C
:100BB0008F9008952F923F924F925F926F927F9203
:100BC0008F929F92AF92BF92CF92DF92EF92FF925D
:100BD0000F931F93CF93DF9300D000D000D01F92CC
:100BE000CDB7DEB71C018091AB0F9091AC0F0E9486
:100BF0008F0581111CC060E070E0CB012A960FB612
:100C0000F894DEBF0FBECDBFDF91CF911F910F9142
:100C1000FF90EF90DF90CF90BF90AF909F908F901C
:100C20007F906F905F904F903F902F900895E0914C
:100C3000AB0FF091AC0FD0801982EE24E394F12C2D
:100C4000812C912C5401412C512C32014394CE0122
:100C500001960E948F05882371F287010F5F1F4F55
:100C60008981E091AB0FF091AC0FEE0DFF1D8083F9
:100C7000E981AE2FAF77B0E0A30192010E94694FE6
:100C8000860E971EA81EB91E37E0440C551C661C24
:100C9000771C3A95D1F7E7FD3FC0BD2DB07FBE83ED
:100CA0008FEF800FF1018083B03309F04CC0809149
:100CB000AB0F9091AC0F800F911F0E948F0588237E
:100CC00009F499CF2091AB0F3091AC0FC701029678
:100CD000820F931F0E948F05882309F48CCF0E5F2B
:100CE0001F4FE091AB0FF091AC0FD1018C91DF0160
:100CF000A80FB11D11968C91119790E0982F88271D
:100D000012962C91820F911D208121FD0296F2E016
:100D1000E0E030E020E01DC078010530110509F069
:100D200096CF8FEF9FEF9093CD0F8093CC0F809154
:100D3000A90F9091AA0FDC01ED91FC910488F5892F
:100D4000E02D199558CFF0E0E0E030E020E090E0B1
:100D500080E070E060E0CF2EDE2EE32EF22E280140
:100D60003B014C185D086E087F084A825B826C82EA
:100D70007D822C01712C612C4F82588669867A867F
:100D80004A805B806C807D804C0C5D1C6E1C7F1CDF
:100D9000C814D904EA04FB0408F046C0CE01019649
:100DA0000E948F05882309F426CF8091CA0F909165
:100DB000CB0F009711F12E812033F9F4D1012C9142
:100DC0004EEF5FEF6FEF7FEF421B51096109710931
:100DD000440E551E661E771E2F81388549855A851B
:100DE000241535054605570540F4DC01ED91FC91CD
:100DF0000190F081E02D698119958091AD0F90915E
:100E0000AE0F0817190750F48981E091AB0FF091EC
:100E1000AC0FE00FF11F80830F5F1F4FBFEFCB1AA6
:100E2000DB0AEB0AFB0AACCF8091CA0F9091CB0F83
:100E3000892B69F48091AD0F9091AE0FB0E0A0E0E6
:100E400084159505A605B70510F410E000E0B8017B
:100E500090E080E0D3CEEF92FF920F931F93CF9359
:100E6000DF9300D01F92CDB7DEB7FA0120E08E01EC
:100E70000F5F1F4F9E2F9F77EE0FEF2FEE1FFF0B81
:100E8000F195309709F09068D801A20FB11D9C939D
:100E90002F5F309779F730E0FB01E21BF30B84837F
:100EA000FB01E21BF30B3596D801CD01801B910BA2
:100EB000821793071CF48D918193F7CF2F5F3F4FDB
:100EC0008091A90F9091AA0F8901040F151F621B31
:100ED000730B6B5F7F4FDC01ED91FC910280F3811E
:100EE000E02DA80119957C010E9483056093B50F40
:100EF0007093B60F8093B70F9093B80F81E00E15E3
:100F00001F0509F080E00F900F900F900F90DF9178
:100F1000CF911F910F91FF90EF90089581E0809302
:100F2000400A0895FC01248135816217730748F453
:100F300080819181009729F0860F971FFC018081A5
:100F4000089580E008950895AF92BF92CF92DF9206
:100F5000EF92FF920F931F93CF93DF936C017B016E
:100F60008B01040F151FEB015E01AE18BF08C017FF
:100F7000D10759F06991D601ED91FC910190F08172
:100F8000E02DC6011995892B79F7C501DF91CF9125
:100F90001F910F91FF90EF90DF90CF90BF90AF9097
:100FA0000895FC01A089B1898C91A689B78982FD39
:100FB0000FC09C91818D8F5F8F77228D821749F0B2
:100FC000A18DAE0FBF2FB11D5D969C93818F0895AB
:100FD0008C910895FC01538D448D252F30E0842F92
:100FE00090E0821B930B541718F081589F4F08957F
:100FF00001970895FC01918D828D981761F0A28D63
:10100000AE0FBF2FB11D5D968C91928D9F5F9F7724
:10101000928F90E008958FEF9FEF0895FC01918DDE
:10102000828D981731F0828DE80FF11D858D90E04B
:1010300008958FEF9FEF0895FC01918D228D892FE8
:1010400090E080589F4F821B91098F7799270895D0
:101050008FEE9FE00E941C0821E0892B09F420E01C
:10106000822F089581E292E10E941C0821E0892BE1
:1010700009F420E0822F089584EA9CE00E941C0875
:1010800021E0892B09F420E0822F089581EC9DE076
:101090000E941C0821E0892B09F420E0822F08958A
:1010A000FC01A48DA80FB92FB11DA356BF4F2C91E1
:1010B000848D90E001968F779927848FA689B789D0
:1010C0002C93A089B1898C91837080648C93938DCB
:1010D000848D981306C00288F389E02D80818F7D6E
:1010E00080830895EF92FF920F931F93CF93DF9326
:1010F000EC0181E0888F9B8D8C8D98131AC0E88954
:10110000F989808185FF15C09FB7F894EE89FF8922
:101110006083E889F98980818370806480839FBFC0
:1011200081E090E0DF91CF911F910F91FF90EF90C0
:101130000895F62E0B8D10E00F5F1F4F0F771127CC
:10114000E02E8C8D8E110CC00FB607FCFACFE8890B
:10115000F989808185FFF5CFCE010E945008F1CF3B
:10116000EB8DEC0FFD2FF11DE356FF4FF0829FB783
:10117000F8940B8FEA89FB8980818062CFCFCF936F
:10118000DF93EC01888D8823B9F0AA89BB89E889AF
:10119000F9898C9185FD03C0808186FD0DC00FB655
:1011A00007FCF7CF8C9185FFF2CF808185FFEDCFD3
:1011B000CE010E945008E9CFDF91CF91089580E0E1
:1011C00090E0892B29F00E94460881110E940000BE
:1011D00080E090E0892B29F00E943C0881110E9458
:1011E000000080E090E0892B29F00E9432088111F4
:1011F0000E94000080E090E0892B29F00E942808DE
:1012000081110C9400000895CF93CFB7F89480918A
:10121000E509811127C0EBEAF3E08491E4EFF3E004
:101220009491E82FF0E0EE0FFF1FE85DFC4FA591D1
:10123000B491EC91E92321F461E085E30E9471030C
:1012400061E085E30E949F038CB580618CBD8CB505
:1012500080648CBD61E084E30E949F0361E083E3CE
:101260000E949F038091E5098F5F8093E509CFBFBE
:10127000CF910895EF92FF920F931F93CF93DF9337
:10128000EC018B017A010E948305688B798B8A8B34
:101290009B8B8C819D81DC01ED91FC910280F3811F
:1012A000E02DA701B801DF91CF911F910F91FF9021
:1012B000EF9019941F93CF93DF93EC01162F0E94A8
:1012C0008305688B798B8A8B9B8B8C819D81DC015C
:1012D000ED91FC910190F081E02D612FDF91CF9194
:1012E0001F91199488E198E00FB6F894A89580931F
:1012F00060000FBE90936000FFCFFC01628973898C
:10130000848995890895EF920F931F93CF93DF936C
:10131000FC01228933894489558986899789A08D62
:10132000B18D821B930BA40BB50B892F9A2FAB2F7A
:10133000BB278C010F5F1F4F628173818481958170
:10134000CFB7F894DCB7E1E0ECBFEE24E394E2E041
:10135000FEEF1995DCBFCFBFDF91CF911F910F91A9
:10136000EF900895FC0182899389A489B589868BC1
:10137000978BA08FB18F138E128E81E090E008952D
:10138000CF92DF92EF92FF92CF93DF93DC01CB01FC
:10139000642FCFB7F8946D01EE24FF24CBBEDCB7E9
:1013A00041E04CBFA901E1E0FEEF1995DCBFCFBFE2
:1013B000DF91CF91FF90EF90DF90CF900895CF9382
:1013C000DF93EC018A8D9B8D892B49F06E897F8993
:1013D000888D998D30E020E045E00E94C0091B8E89
:1013E0001A8EDF91CF9108951F93CF93DF93EC0175
:1013F000162F8A8D9B8D892B49F46E897F89888D64
:10140000998D30E020E043E00E94C0094A8D5B8D59
:10141000CA0181709927FE01E80FF91F148F892BEB
:1014200069F02C8D3D8D6E897F89888D998D640F33
:10143000751F811D911D41E00E94C0098A8D9B8D01
:1014400001969B8F8A8F81159140B1F46E897F89B7
:10145000888D998D30E020E045E00E94C0091B8E08
:101460001A8E8E899F89A88DB98D9F5FAF4FBF4F10
:101470008E8B9F8BA88FB98F81E090E0DF91CF9109
:101480001F910895FC0120812EBD9B01215031093F
:1014900041F051810DB407FEFDCF4EB55EBD4193C5
:1014A000F5CF61507109860F971F0DB407FEFDCF70
:1014B0002EB5FC0120830895E091E209F091E30943
:1014C00080819091E109892B80830895E091E20960
:1014D000F091E30990818091E109809589238083CF
:1014E000089590E020919D0A233339F40C96982FAB
:1014F000990F990F990F80E008954896F8CFCF93F0
:10150000DF931F92CDB7DEB76983DC01ED91FC91CB
:101510000280F381E02D41E050E0BE016F5F7F4F1C
:1015200019950F90DF91CF910895CF93DF931F927C
:10153000CDB7DEB76983DC01ED91FC910280F381C8
:10154000E02D41E050E0BE016F5F7F4F19950F9095
:10155000DF91CF910895FC019485FB018485981358
:1015600003C081E0983008F080E00895CF93DF93C6
:101570001F92CDB7DEB76983DC01ED91FC9102804B
:10158000F381E02D41E050E0BE016F5F7F4F199580
:101590000F90DF91CF910895089561E0FC0184815F
:1015A0000E9471038091DB0981111092DB0908957B
:1015B0008EBD00000DB407FEFDCF8EB50895AF922D
:1015C000BF92CF92DF92EF92FF920F931F93CF9330
:1015D000DF9300D000D01F921F92CDB7DEB78C01F1
:1015E0007B016A0180919D0A8333E1F45801A40EC6
:1015F000B51EA016B10609F46FC00E94660A80EFFE
:101600000E94D80A812F0E94D80A802F0E94D80AEF
:101610000F5F1F4FF70181917F010E94D80A0E943E
:101620005C0AE7CF5B01A40EB51E8433C1F40E94AF
:10163000660A19830A838D2D80688B83CC8264E0CF
:1016400070E0CE0101960E94420AAE14BF0409F474
:1016500041C0F70181917F010E94D80AF6CF0E9414
:10166000660A0F3F110509F028F419820A8384E005
:101670008B830CC017FD17C019820A8333E01695BF
:1016800007953A95E1F7007E0C600B8386E0C8165B
:10169000D104A0F5F701DE011496EA15FB0599F0D7
:1016A00081918D93FACFC80126E0969587952A956A
:1016B000E1F7807E19830A830115104C10F48461D0
:1016C000D7CF8C61D5CFB6016D5F7F4FCE0101962C
:1016D0000E94420A0E945C0AC60128960FB6F8943E
:1016E000DEBF0FBECDBFDF91CF911F910F91FF9055
:1016F000EF90DF90CF90BF90AF90089563E070E0DF
:10170000CE0101960E94420AF70181917F010E9459
:10171000D80AAE14BF04C1F7DDCFCF93DF931F9279
:10172000CDB7DEB7898341E050E0BE016F5F7F4FE8
:1017300090E080E00E94DF0A0F90DF91CF91089542
:10174000DA01E091E409F0E0FE2FEE27E60FF71F43
:1017500090E0982F8827A901BD018E0F9F1F0C9440
:10176000DF0ACF93DF931F921F92CDB7DEB7798345
:101770006A8322E030E0AE014F5F5F4F60E170E0CE
:101780000E94A00B0F900F90DF91CF910895CF93FF
:10179000DF931F921F92CDB7DEB779836A8322E071
:1017A00030E0AE014F5F5F4F64E070E00E94A00B3D
:1017B0000F900F90DF91CF910895CF93DF931F92F9
:1017C000CDB7DEB72091E40930E0322F2227260F73
:1017D000371F90E0982F8827498341E050E0BE01F1
:1017E0006F5F7F4F820F931F0E94DF0A0F90DF9180
:1017F000CF9108958FEF0C94D80A0F931F93CF9336
:10180000DF93EC010E9483058B010E94FA0B8F3F4E
:1018100069F00E948305601B710B6C177D07A8F3AC
:1018200080E0DF91CF911F910F91089581E0F9CF72
:101830008CBD9DBD0895FF920F931F93CF93DF93AF
:10184000EB01FC01178A168A2A81211109C02B811C
:10185000211106C02C81211103C02D81222301F109
:1018600041155105E9F08A01FC01F08C80E591E019
:101870000E94180CAE014E5F5F4F24E030E06CE038
:1018800070E08F2D0E94A00BB8018F2D0E94B10B2C
:1018900081E090E0DF91CF911F910F91FF9008952B
:1018A00080E0F7CFCF93DF93EC018091DB098111CA
:1018B00009C081E08093DB098091440F9091450F2E
:1018C0000E94180C60E08C81DF91CF910C94710321
:1018D0008F929F92AF92BF92FF920F931F93CF93DD
:1018E000DF93EC01F62E49015A018E81882389F09D
:1018F0008F8198859C012F5F3F4F38872F838230DF
:10190000924018F40E94FA0BF3CFCE010E94CD0A48
:101910001E82CE010E94520C8CE291E00E94FD0BCF
:101920008F2D80640E94D80A08E110E0D501C4011F
:10193000002E04C0B695A795979587950A94D2F77F
:101940000E94D80A08501109083F8FEF180771F755
:1019500085E9FF2021F028E087E8F2128FEF0E944E
:10196000D80A10E00E94FA0B8A8787FF04C01F3F45
:1019700011F01F5FF7CFDF91CF911F910F91FF9073
:10198000BF90AF909F908F900895AF92BF92CF92EB
:10199000DF92EF92FF920F931F93CF93DF93EC01AF
:1019A0006901C801820F931F8130924050F58E81EA
:1019B000882379F088819981AA81BB818417950752
:1019C000A607B70731F48F819885C816D90608F0A5
:1019D00042C0488359836A837B838B85833039F087
:1019E00089E0440F551F661F771F8A95D1F79A012A
:1019F000AB0161E1CE010E94680C882389F083E08D
:101A00008D83CE010E94CD0A80E0DF91CF911F919E
:101A10000F91FF90EF90DF90CF90BF90AF9008951F
:101A20000E9483055B010E94FA0B8A878F3F69F44D
:101A30000E9483056A197B096D327140A0F38FE023
:101A40008D83CE010E94CD0ADCCF8E3F89F41886AB
:101A50001F8281E08E838F8198858C159D0550F4BF
:101A60000E94FA0B8F819885019698878F83F3CF18
:101A70008DE0E6CF6701E00EF11E0E94FA0BF60141
:101A800081936F01EE15FF05C1F78F819885080FCF
:101A9000191F18870F838985882319F001151240B3
:101AA000A0F08E81882389F08F8198859C012F5F1B
:101AB0003F4F38872F838230924018F40E94FA0BF0
:101AC000F3CFCE010E94CD0A1E8281E09ECFCF923D
:101AD000DF92EF92FF920F93CF93DF93EC016901B6
:101AE00082E1411551056105710599F08B858330BF
:101AF00039F089E0440F551F661F771F8A95D1F78B
:101B00009A01AB0168E1CE010E94680C882319F0AC
:101B100084E08D832DC08EEF0E94D80A76018EEF6F
:101B2000D81AF70181917F010E94D80AEC14FD04B4
:101B3000C1F78FEF0E94D80A8FEF0E94D80A0E9447
:101B4000FA0B8A878F71853071F4011116C0CE01AE
:101B50000E94CD0A81E0DF91CF910F91FF90EF902D
:101B6000DF90CF90089581E18D83CE010E94CD0A50
:101B7000CE010E94CD0A80E0EECF88E592E00E947F
:101B8000FD0B811102C085E1C4CF20E030E0A90146
:101B90006DE0CE010E94680C882311F084E1B9CF7A
:101BA0000E94FA0B8111FACFD2CF0F934091DD0939
:101BB0005091DE096091DF097091E00941155105EE
:101BC0006105710599F0082F20EA3AE080919E0A9C
:101BD00090919F0A0E94670D882349F01092DD09B9
:101BE0001092DE091092DF091092E00981E00F9156
:101BF00008950F93CF93C82F8091DC09811105C000
:101C0000C1E08C2FCF910F91089540910002509127
:101C1000010260910202709103020C2F20EA3AE067
:101C200080919E0A90919F0A0E94670D811102C0C7
:101C3000C0E0E7CFCC2321F381E00E94D50D8823BB
:101C4000B9F31092DC09DDCF8F929F92AF92BF92D1
:101C5000EF92FF920F931F93CF934B015C01C42F20
:101C60008091000290910102A0910202B0910302C2
:101C700088159905AA05BB0551F181E00E94F90D6F
:101C800081110BC080E0CF911F910F91FF90EF90D9
:101C9000BF90AF909F908F90089580EAE82E8AE0E1
:101CA000F82E00E012E030E020E0B501A4018091C0
:101CB0009E0A90919F0A0E94C50C882319F3809276
:101CC000000290920102A0920202B092030240919F
:101CD000DC094C2B4093DC0981E0D5CFCF93DF9317
:101CE000EC016E857F858889998941E00E94240EE8
:101CF000882351F08A8920E2829FC00111248056F6
:101D0000954FDF91CF91089590E080E0FACF8F92C8
:101D10009F92AF92BF92CF92DF92EF92FF92CF93BA
:101D200026E43FE030939F0A20939E0A882309F41B
:101D30006DC040E060E070E0CB010E94240E811194
:101D40000BC080E0CF91FF90EF90DF90CF90BF90DD
:101D5000AF909F908F90089580915E0C8F7789F758
:101D600080916A0C90916B0CA0916C0CB0916D0CF1
:101D700084369105A105B10520F3C090660CD09082
:101D8000670CE090680CF090690CC114D104E10478
:101D9000F104B9F240E0C701B6010E94240E882385
:101DA00081F28091AB0A9091AC0A8115924049F67C
:101DB000A091B00AAA2329F26091AE0A7091AF0AED
:101DC0006115710509F4BDCF2091AD0A222309F4F4
:101DD000B8CFA093640F2093560F90E080E030E0DE
:101DE000E1E0F0E0C82FAF01082E02C0440F551FFC
:101DF0000A94E2F72417350769F041E0480F01968D
:101E00008930910579F740935F0F9BCFC12CD12C7E
:101E10007601C0CF80935F0F2091B60A3091B70A48
:101E200050E040E02115310541F42091C40A309181
:101E3000C50A4091C60A5091C70A2093570F3093A4
:101E4000580F4093590F50935A0F46015701860E71
:101E5000971EA11CB11C8092650F9092660FA092F4
:101E6000670FB092680FE091B10AF091B20AF09357
:101E70006B0FE0936A0FB0E00E94694FDC01CB0169
:101E8000880D991DAA1DBB1D80936C0F90936D0F3B
:101E9000A0936E0FB0936F0F25E0EE0FFF1F2A95F2
:101EA000E1F7E150FE4FEF2FFF27E6958E0F9F1FC2
:101EB000A11DB11D8093600F9093610FA093620FDD
:101EC000B093630F8090B30A9090B40AB12CA12C08
:101ED0008114910441F48090C00A9090C10AA090AE
:101EE000C20AB090C30AC81AD90AEA0AFB0AC80C87
:101EF000D91CEA1CFB1C04C0F694E794D794C79441
:101F0000CA95D2F7C0925B0FD0925C0FE0925D0F42
:101F1000F0925E0F85EFC8168FE0D806E104F10459
:101F200028F48CE08093690F81E00CCF80E125EFED
:101F3000C2162FEFD206E104F104A0F38091CC0A7F
:101F40009091CD0AA091CE0AB091CF0A80936C0FE8
:101F500090936D0FA0936E0FB0936F0F80E2E2CF5E
:101F60004F925F926F927F928F929F92AF92BF92A9
:101F7000CF92DF92EF92FF920F931F93CF93DF9355
:101F8000EC01423051056105710590F480E0DF916C
:101F9000CF911F910F91FF90EF90DF90CF90BF9066
:101FA000AF909F908F907F906F905F904F9008952B
:101FB00089859A85AB85BC850196A11DB11D8417C5
:101FC0009507A607B70710F3CB88DC88ED88FE8855
:101FD0008F89803109F042C0BB27A72F962F852F0C
:101FE000480159012A013B01C80ED91EEA1EFB1EF9
:101FF0008091000290910102A0910202B09103022F
:10200000C816D906EA06FB0699F58F898031C1F515
:10201000B301A201552766277727440F551F405665
:10202000554FFA01918280828091DC098160809312
:10203000DC098A89823080F08D819E81AF81B885EC
:102040008C0D9D1DAE1DBF1D8093DD099093DE0993
:10205000A093DF09B093E00981E099CFDB01CA01C9
:10206000E7E0B695A79597958795EA95D1F7B8CF0C
:1020700040E0C701B6010E94240E8111C6CF86CF71
:10208000B301A2014F77552766277727440F551FC5
:10209000440F551F4056554FFA0180829182A2820B
:1020A000B382C2CF8F929F92AF92BF92CF92DF92B4
:1020B000EF92FF920F931F93CF93DF93FC018185E3
:1020C0009285A385B4850196A11DB11D841795073E
:1020D000A607B70770F480E0DF91CF911F910F91B1
:1020E000FF90EF90DF90CF90BF90AF909F908F9038
:1020F000089583889488A588B6888789803189F572
:10210000BB27A72F962F852FE9016A017B018F013D
:10211000BC01CD01680D791D8A1D9B1D80900002B8
:1021200090900102A0900202B090030286169706DA
:10213000A806B90601F5F8018789803111F5DD247B
:10214000EE24FF24F601EE0FFF1FE056F54F8081CD
:102150009181B0E0A0E088839983AA83BB8381E06A
:10216000BBCFDB01CA01C7E0B695A79597958795C8
:10217000CA95D1F7C9CF40E00E94240E8111DBCF70
:10218000AACFE894C7F8DD24EE24FF24F601EE0F71
:10219000FF1FEE0FFF1FE056F54F80819181A28156
:1021A000B381BF70D8CF4F925F926F927F92AF9200
:1021B000BF92CF92DF92EF92FF920F931F93CF9334
:1021C000DF9300D01F92CDB7DEB78C0149835A83CD
:1021D0006B837C835901C12CD12C7601412C82E088
:1021E000582E612C712C49815A816B817C819E0112
:1021F0002F5F3F4FC8010E945210882339F1F80128
:102200008585A301920104C0220F331F441F551F6F
:102210008A95D2F7DA01C901C80ED91EEA1EFB1E43
:1022200049815A816B817C818789803111F188EFE6
:102230009FEFAFEFBFE0481759076A077B0798F297
:10224000F501C082D182E282F38281E00F900F908B
:102250000F900F90DF91CF911F910F91FF90EF9012
:10226000DF90CF90BF90AF907F906F905F904F9036
:10227000089588EF9FEFA0E0B0E0DDCFCF93DF932C
:10228000FC012581222321F080E0DF91CF91089588
:10229000EC018091690F803159F582E08583178ABE
:1022A000108E118E128E80916A0F90916B0FB0E09C
:1022B000A0E025E0880F991FAA1FBB1F2A95D1F720
:1022C000838B948BA58BB68B82E59FE09C8F8B8F45
:1022D00081E08C831E821F82188619861A861B86CF
:1022E0001C861D861E861F86188A198A1A8ACDCFDB
:1022F000803251F683E0858340916C0F50916D0FD1
:1023000060916E0F70916F0F478B508F618F728F3E
:102310009F012D5E3F4F82E59FE00E94D310811107
:10232000D3CFB2CF8F929F92AF92BF92CF92DF92D4
:10233000EF92FF920F931F93CF93DF93EC018D8168
:1023400081110EC080E0DF91CF911F910F91FF901E
:10235000EF90DF90CF90BF90AF909F908F900895B7
:102360000B891C892D893E89041715072607370715
:1023700048F34A015B01823031F48A869B86AC8641
:10238000BD8681E0E0CF81149104A104B10449F439
:102390001E821F82188619861A861B861C861D8639
:1023A000F0CF0A851B852C853D85EB8DFC8D8585C1
:1023B00090E00996B901A8014150510961097109DC
:1023C000082E04C076956795579547950A94D2F7DD
:1023D00075016401E1E0CE1AD108E108F10804C0FA
:1023E000F694E794D794C7948A95D2F7C416D50685
:1023F000E606F70620F0012B022B032B11F58F893F
:10240000988DA98DBA8D8E839F83A887B9878E01F9
:102410000A5F1F4FC114D104E104F10409F4ADCFE8
:102420004E815F816885798598018B8D9C8D0E9496
:10243000521091E0C91AD108E108F1088111EACFE0
:1024400081CFC41AD50AE60AF70AE1CF3F924F922C
:102450005F926F927F928F929F92AF92BF92CF9234
:10246000DF92EF92FF920F931F93CF93DF93CDB73D
:10247000DEB72C970FB6F894DEBF0FBECDBF5C0160
:10248000DC015B968D909C905C9716964D905D90CC
:102490006D907C901997411451046104710409F402
:1024A00068C0BFEF4B1A5B0A6B0A7B0A312CF40140
:1024B00081859285A385B4859C01AD012F5F3F4F37
:1024C0004F4F5F4F29873A874B875C8773016201C3
:1024D0001D821E821F821886F40181859285A38544
:1024E000B4852D813E814F815885281739074A07C9
:1024F0005B0708F056C089859A85AB85BC858C152D
:102500009D05AE05BF0550F482E0C82ED12CE12C0C
:10251000F12C92E0492E512C612C712C9E012F5FE1
:102520003F4FB701A601C4010E9452108823C9F190
:1025300089819A81AB81BC81892B8A2B8B2B09F1F4
:10254000260137019FEF491A590A690A790A2D8134
:102550003E814F8158852F5F3F4F4F4F5F4F2D83F7
:102560003E834F8358873FEFC31AD30AE30AF30A27
:10257000B3CFF40140805180628073803324339460
:1025800096CFC414D504E604F70409F70FEF1FEF44
:102590002FEF3FE0B701A601C4010E94B00F8111E7
:1025A00019C080E02C960FB6F894DEBF0FBECDBFE9
:1025B000DF91CF911F910F91FF90EF90DF90CF901F
:1025C000BF90AF909F908F907F906F905F904F9053
:1025D0003F900895D50116964D915D916D917C9136
:1025E0001997411551056105710539F0970186016B
:1025F000C4010E94B00F8823A1F2D5011696CD9296
:10260000DD92ED92FC921997332051F0D701C6016B
:102610000196A11DB11DF40180839183A283B38330
:10262000F5018789908DA18DB28D892B8A2B8B2BFB
:1026300039F48481C78AD08EE18EF28E80688483DB
:10264000F50184818062848381E0ACCF2F923F9238
:102650004F925F926F927F928F929F92AF92BF92B2
:10266000CF92DF92EF92FF920F931F93CF93DF935E
:10267000EC015B012A018D81811115C08FEF9FEF65
:10268000DF91CF911F910F91FF90EF90DF90CF904E
:10269000BF90AF909F908F907F906F905F904F9082
:1026A0003F902F9008958C8180FFE8CF0B891C8983
:1026B0002D893E894A855B856C857D85C201B0E0A8
:1026C000A0E068017901C41AD50AE60AF70AC8161B
:1026D000D906EA06FB0618F42801441A550A4201F5
:1026E0001E0126E0220E311C8114910409F4B3C0AE
:1026F0004A855B856C857D856A0181E0D8228B8D5A
:102700009C8D8A019B01E9E03695279517950795E1
:10271000EA95D1F7ED81E230E1F5FC01628D738D30
:10272000848D958D600F711F821F931F612C22E095
:10273000722E6C187D088614970408F434012C81DD
:1027400026FD04C06114F2E07F0671F400910002DE
:10275000109101022091020230910302061717071F
:102760002807390709F053C040E00E94240E88234F
:1027700009F484CFC6018056954FD5019C01260DE2
:10278000371DFC012E173F0709F460C041914D939E
:10279000F9CFFC0174807A947022C114D10471F4D1
:1027A00071100CC0452B462B472B39F58F89988D1E
:1027B000A98DBA8D8E839F83A887B987EB8DFC8DF9
:1027C0006E817F818885998562507109810991099F
:1027D000258504C0660F771F881F991F2A95D2F799
:1027E0000685178520893189600F711F821F931F0D
:1027F000670D711D811D911D99CF4E815F81688587
:10280000798591010E9452108111D8CF37CF75017F
:1028100083019601AB01BC0180919E0A90919F0AB1
:102820000E94C50C882309F429CFA60CB71C8A8501
:102830009B85AC85BD85860D971DA11DB11D8A8721
:102840009B87AC87BD87861897084ECF281B390B0E
:10285000A20EB31EECCFC20113CF1F93CF93DF9311
:10286000FC012581222371F1162FEC01848187FF61
:102870001EC0CF010E946E0EFC01892B19F18D81C3
:10288000823040F48B899C89AD89BE89848F958F75
:10289000A68FB78F8F89988D938F828F8F89988D10
:1028A000A98DBA8DB58BA48B8C818F778C831111F8
:1028B00003C08C818F7E8C83812FDF91CF911F91FC
:1028C0000C94F90D80E0DF91CF911F910895FF9254
:1028D0000F931F93CF93DF93EC018D81813041F0F3
:1028E00090E080E0DF91CF911F910F91FF900895CC
:1028F0008C8181FFF5CF82FD1BC000919E0A109153
:102900009F0AC8010E94520C0E94FA0BF82EC801BF
:102910000E94CD0A8FEFF812E3CF8C8185FF1BC098
:1029200060E0CE010E942D148C818F7D8C83D8CFE6
:102930004B895C896D897E898A859B85AC85BD853F
:1029400084179507A607B707C1F2CE010E9492111E
:102950008111D3CFC5CF4091DD095091DE0960913F
:10296000DF097091E009452B462B472B21F080E0D1
:102970000E94D50DB5CF80618C832A853B8531704F
:1029800080E092E0821B930BADCFCF93DF93EC01FD
:1029900061E00E942D14882311F01D8281E0DF91F7
:1029A000CF9108952F923F924F925F926F927F92B4
:1029B0008F929F92AF92BF92CF92DF92EF92FF924F
:1029C0000F931F93CF93DF9300D01F921F92CDB729
:1029D000DEB77C015B01342E5D83DC0115968C91A2
:1029E0001597813009F0CEC014962C9021FECAC0F4
:1029F00022FCB4C0C32CDD8022947FE027222094E7
:102A0000B22DB1702B2ED7011A964D915D916D911B
:102A10007C911D97C114D10409F428C15B968D9156
:102A20009C915C97FC0174807A948A019B0169E017
:102A300036952795179507956A95D1F770228A01E3
:102A40001170711020C001151105E9F416964D9111
:102A50005D916D917C911997411551056105710545
:102A600009F099C057968D919D910D90BC91A02D24
:102A70000097A105B10509F0B0C0C7010E94261258
:102A8000882309F47FC080E092E0801B910B46010F
:102A90008C159D0508F44C01D7015B964D915C9116
:102AA0005C9716968D919D910D90BC91A02D0297EB
:102AB000A109B109FA01258504C0880F991FAA1F31
:102AC000BB1F2A95D2F74685578560897189840F87
:102AD000951FA61FB71F9C01AD01270D311D411D7C
:102AE000511D29013A01811432E0930609F07BC09F
:102AF0008091000290910102A0910202B091030224
:102B000084159505A605B70559F48FEF9FEFDC01F5
:102B10008093000290930102A0930202B0930302FB
:102B2000022D9501B301A20180919E0A90919F0A06
:102B30000E94670D882331F19EEFB91AC818D90891
:102B4000F70182859385A485B585880D991DA11D02
:102B5000B11D82879387A487B58755CFF701438935
:102B600054896589768982859385A485B5854817BA
:102B700059076A077B0709F43DCFC7010E949211EC
:102B8000811138CF81E090E0D70113969C938E930A
:102B9000129780E007C09E012F5F3F4F0E945210A6
:102BA000811102C090E079C089819A81AB81BC819A
:102BB000F701238D348DF901278948EF5FEF60E03D
:102BC00070E0203121F048EF5FEF6FEF7FE0841776
:102BD0009507A607B70708F050CFF70186839783BC
:102BE000A087B18750CF0115110599F5D7011A9625
:102BF0004D915D916D917C911D9753968D919D9115
:102C00000D90BC91A02D481759076A077B0708F162
:102C100081E00E94F90D882309F4B4CF40920002AC
:102C20005092010260920202709203028091DC09CC
:102C300081608093DC09C8018056954FD5019C01C5
:102C4000280D391DFC012E173F0759F04D91419376
:102C5000FACF41E0C301B2010E94240E8111EBCFF3
:102C600091CF281B390BA20EB31E68CFF7018389C1
:102C70009489A589B68984179507A607B70738F4FC
:102C80008481438B548B658B768B80688483F701BA
:102C9000848183FD1AC0832D9D810F900F900F902A
:102CA0000F900F90DF91CF911F910F91FF90EF90B8
:102CB000DF90CF90BF90AF909F908F907F906F905C
:102CC0005F904F903F902F90089561E0C7010E9460
:102CD0002D14882309F456CFDECFCF93DF931F92B4
:102CE000CDB7DEB7698341E050E0BE016F5F7F4F33
:102CF0000E94D2140F90DF91CF910895FC01DB0167
:102D000012968D919C9113979383828380E193E037
:102D10009183808314968C911497848315968C915B
:102D20001597858316964D915D916D917C911997BC
:102D300046835783608771871A964D915D916D9197
:102D40007C911D9742875387648775871E964D91A6
:102D50005D916D917C91519746875787608B718B00
:102D600052968C915297828B53964D915D916D91B5
:102D70007C915697438B548B658B768B57964D91F0
:102D80005D916D917C915A97478B508F618F728FB7
:102D90005B968D919C91948F838F0895DC01599659
:102DA000ED91FC91309721F081E09581911101C066
:102DB00080E00895FC01818D928D009719F061E00B
:102DC0000C942D140895DC015996ED91FC913097E7
:102DD000B9F083899489A589B6894285538564852C
:102DE0007585841B950BA60BB70B811520E8920700
:102DF000A105B10538F08FEF9FE7A0E0B0E008959E
:102E000090E080E00895CF92DF92EF92FF920F93CF
:102E10001F93CF93DF937C01EB016A010E94CE16D2
:102E2000882309F46BC0F701818D928D009759F4C6
:102E300084E090E0DF91CF911F910F91FF90EF9090
:102E4000DF90CF900895F6014081518162817381B6
:102E50000E949211882361F3F701818D928D10E019
:102E600000E0009731F040E550E0BE010E942613DB
:102E70008C019E0170E060E00115110541F418829B
:102E800087E090E0D7CFBC018F34910549F1F9017B
:102E900040812F5F3F4FCB0101964A30E1F04D302A
:102EA000E1F42AE01082C80FD91F38813213CB0118
:102EB0009C012F5F3F4FF60180819181A281B381F8
:102EC000820F931FA11DB11D80839183A283B383C1
:102ED00090E080E0AFCF2DE0E5CF8017910799F625
:102EE000C7010E94E316892B19F4C00FD11FC7CF69
:102EF000C15BDF4F188283E090E09CCF82E090E0DE
:102F000099CFDC0159968D919C91009739F0DC01A5
:102F1000ED91FC910480F581E02D199490E080E022
:102F20000895CF93DF93EC01E98DFA8D309749F442
:102F300081E090E09B838A8390E080E0DF91CF91F5
:102F4000089513821282898D9A8D0E94D214E98D80
:102F5000FA8D22813381232B59F7F0CFCF93DF9362
:102F60001F92CDB7DEB76983DC01ED91FC91028041
:102F7000F381E02D41E050E0BE016F5F7F4F199576
:102F80000F90DF91CF910895CF93DF931F92CDB72C
:102F9000DEB741E050E0BE016F5F7F4F0E94261315
:102FA000019731F4898190E00F90DF91CF910895DE
:102FB0008FEF9FEFF9CFFC01818D928D009711F07B
:102FC0000C94C4178FEF9FEF08950F931F93CF9327
:102FD000DF93EC01898D9A8D10E000E0009799F065
:102FE0000E94C4178C010F3F100769F0898D9A8DDC
:102FF000FC014285538564857585415051096109FD
:1030000071090E949211C801DF91CF911F910F9118
:10301000089590915509913351F4E82FF0E0EE0FA7
:10302000FF1FEE55FD4F0190F081E02D1994903374
:1030300039F4E82FF0E0EE0FFF1FEE57FD4FF3CF0E
:1030400008958F929F92BF92CF92DF92EF92FF925C
:103050000F931F93CF93DF938091DA0981117DC085
:103060008A01EB01060F171F92E0C92ED12CEE2426
:10307000E394F12C0C171D0709F46FC0299180917E
:10308000D8099091D9098130910591F0823091054C
:10309000A9F0892B79F72B3769F7F092D909E092DB
:1030A000D8091092D7091092D60910925609E2CF8A
:1030B0002D3721F5D092D909C092D80980915709AE
:1030C000843419F5809158098F34F9F480915A09A4
:1030D0008A3351F586E5882E89E0982EB12CF401CB
:1030E0008681809355098B2D0E940918B394F2E0D4
:1030F0008F0E911C80E1B812F2CF07C08091D609E3
:103100009091D7098138910528F01092D909109231
:10311000D809B0CFFC01EA5AF64F2083019690936C
:10312000D7098093D609A6CF909159099F3569F7A1
:1031300090915D099A3349F79AE0813309F090E064
:1031400080915B098053890F8031F8F690915F0977
:10315000909355090E940918D8CFDF91CF911F9104
:103160000F91FF90EF90DF90CF90BF909F908F9046
:10317000089560E08DE10C94710360E08CE10C94A3
:10318000710360E08BE10C94710360E08AE10C94C0
:10319000710360E089E10C94710360E088E10C94B4
:1031A000710360E087E10C94710360E086E10C94A8
:1031B000710360E08EE10C94710360E08FE10C9488
:1031C000710360E080E20C94710360E081E20C9492
:1031D000710360E082E20C94710360E083E20C947E
:1031E000710360E084E20C94710360E085E20C946A
:1031F000710361E08DE10C94710361E08CE10C944A
:10320000710361E08BE10C94710361E08AE10C943D
:10321000710361E089E10C94710361E088E10C9431
:10322000710361E087E10C94710361E086E10C9425
:10323000710361E08EE10C94710361E08FE10C9405
:10324000710361E080E20C94710361E081E20C940F
:10325000710361E082E20C94710361E083E20C94FB
:10326000710361E084E20C94710361E085E20C94E7
:1032700071038EE30E9448039C0181E02115310512
:1032800009F080E0809345099091DA09232B09F039
:10329000FBC0911105C012B881E088B98093DA09AA
:1032A0008FE30E94480321E0892B09F020E020935E
:1032B000460980E40E94480321E0892B09F020E0C0
:1032C0002093470981E40E94480321E0892B09F0FB
:1032D00020E02093480982E40E94480321E0892BE2
:1032E00009F020E02093490983E40E94480321E08B
:1032F000892B09F020E020934A0984E40E944803C6
:1033000021E0892B09F020E020934B0985E40E94FD
:10331000480321E0892B09F020E020934C0981E348
:103320000E94480321E0892B09F020E020934D09F9
:1033300080E30E94480321E0892B09F020E02093DC
:103340004E098FE20E94480321E0892B09F020E01A
:1033500020934F098EE20E94480321E0892B09F057
:1033600020E0209350098DE20E94480321E0892B40
:1033700009F020E0209351098CE20E94480321E0EB
:10338000892B09F020E0209352098BE20E94480328
:1033900021E0892B09F020E0209353098AE20E9462
:1033A000480321E0892B09F020E02093540985E2AD
:1033B0000E9448038093350984E20E944803809369
:1033C000360983E20E9448038093370982E20E9413
:1033D00048038093380981E20E94480380933909A9
:1033E00080E20E94480380933A098FE10E944803DB
:1033F00080933B098EE10E94480380933C0986E15B
:103400000E94480380933D0987E10E94480380930E
:103410003E0988E10E94480380933F0989E10E94A8
:103420004803809340098AE10E9448038093410940
:103430008BE10E944803809342098CE10E9448037B
:10344000809343098DE10E9448038093440986E3F9
:103450000E94D00390932E0980932D0987E30E9448
:10346000D0039093300980932F0988E30E94D00302
:10347000909332098093310989E30E94D00390939D
:103480003409809333090895992309F409CF60E042
:1034900085E20E9471031092DA0902CF21E0FC015B
:1034A0008485883008F020E0822F089544960C949B
:1034B000AE170F931F93FC016285738584859585F4
:1034C0000281138124813581601B710B820B930B68
:1034D0000685178520893189601B710B820B930B40
:1034E0001F910F910895DC01ED91FC910190F08105
:1034F000E02D1994FC01768765870895DC01ED9134
:10350000FC9102A0F3A1E02D199591E0892708957F
:10351000862F089581E0862708950895FC0184850B
:1035200095850895FC0184899589089528EA33E0FA
:10353000FC0131832083FB014089518962897389B1
:10354000FC0142835383648375830895DC01ED910C
:10355000FC91048CF58DE02D1994CF93DF93FB0142
:1035600022813381DC0113963C932E931297448180
:1035700055816681778114964D935D936D937C930D
:103580001797408551856285738518964D935D9395
:103590006D937C931B971C96EF012C969C01275EE4
:1035A0003F4F49914D93A217B307D9F7218D328D23
:1035B000FC01328F218FDF91CF91089590E080E060
:1035C0000895FC01379620E08FEF9FEF261791F0CA
:1035D0003191832738E0AC01417055279695879546
:1035E000452B21F041E0842740EA9427315099F798
:1035F0002F5FECCF0895CF93DF93EC0166E00E943C
:10360000E11A8D879E878E818F3F19F061E00E94BD
:1036100071038C819D81BE01695F7F4FDC01ED915B
:10362000FC910280F381E02D48E050E019958C81F7
:103630009D81DC01ED91FC910680F781E02D1995CB
:103640008E818F3F29F060E0DF91CF910C94710360
:10365000DF91CF9108958091C6078F5F8B30D0F4B2
:103660008093C6078091C6079FEF980F973FA0F4FD
:103670008093131183E0809314111092151110920E
:1036800016111092171182E0809318118CE091E1CD
:103690000C94FB1A81E0E4CF08958091C7078F5FF7
:1036A0008630C8F48093C7078091C7079FEF980FB3
:1036B000973F98F48093451383E0809346131092CC
:1036C0004713109248131092491380934A138EE3C4
:1036D00093E10C94FB1A81E0E5CF08954F925F923D
:1036E0006F927F928F929F92AF92BF92CF92DF9212
:1036F000EF92FF920F931F93CF93DF93EC01862EEF
:103700000E9483056B017C018C819D81DC01ED9120
:10371000FC910484F585E02D1995912C892B09F0F5
:1037200041C08C819D81DC01ED91FC910284F38587
:10373000E02D19958E01015F1E4F8C819D81DC016A
:10374000ED91FC910084F185E02D1995892B41F5CF
:103750000E9483056C197D098E099F09F80140803C
:10376000518062807380641575058605970528F37E
:10377000CD5EDE4F81E0888330E020E0C901DF913B
:10378000CF911F910F91FF90EF90DF90CF90BF905E
:10379000AF909F908F907F906F905F904F90089523
:1037A0009924939410E000E05E01F9EFAF1AFEEF68
:1037B000BF0A8C819D81DC01ED91FC910084F18533
:1037C000E02D1995892B99F00E94E7036B017C018C
:1037D0008C819D81DC01ED91FC910284F385E02DCB
:1037E0001995FE01E00FF11F87830F5F1F4F0E94A5
:1037F000E7036C197D098E099F09F501408051800E
:1038000062807380461657066806790620F00F3FDF
:10381000110579F270F25E01F5EFAF1AFEEFBF0A03
:103820000E94E7036C197D098E099F09D5014D900F
:103830005D906D907C90641575058605970580F305
:10384000992041F001501109FE01E00FF11F87811D
:10385000811192CF8C819D81DC01ED91FC910084DE
:10386000F185E02D1995892B09F086CF8F8188117C
:1038700083CFF8848F2D8F77833009F07DCF6EEF63
:10388000600FCE010E94E11A980122503109FE0119
:10389000E00FF11F4681FE01E20FF31F578145271C
:1038A000542745278417950709F066CFB3E8FB1224
:1038B00065CFFE01EC5EFE4F898580835DCF609110
:1038C000C7078EE393E10E946E1B2091C7070997FB
:1038D000A1F5E22FF0E080914713863071F5409119
:1038E0004A1350914B1354274527542720914C13CA
:1038F00030914D133227232732278091C60790E05D
:10390000880F991FDC01A352B74F60914813709143
:1039100049137627672776276D937C93DC01A7519F
:10392000B74F4D935C938B50974FDC012D933C9395
:10393000E054F84F8AE080830895822F90E0FC01E4
:10394000E054F84F20812223D1F02150208321110F
:1039500016C0880F991FFC01E352F74F11821082A5
:103960008091C60790E0880F991FFC01E751F74F3F
:10397000118210828B50974FFC01118210820895A2
:103980006091C6078CE091E10E946E1B2091C607F2
:10399000079739F5822F90E030911511343009F5F1
:1039A00040911811509119115427452754279C0113
:1039B000220F331FF901E95EF64F609116117091E5
:1039C0001711762767277627718360832F5F364F1D
:1039D000F901518340838654984F2AE0FC012083EB
:1039E0000895822F90E0FC01E654F84F20812223B5
:1039F00081F02150208321110CC0880F991FFC01F8
:103A0000E95EF64F118210828F5F964FFC011182A2
:103A1000108208958F929F92AF92BF92CF92DF92C1
:103A2000EF92FF920F931F93CF93DF9300D01F92DB
:103A3000CDB7DEB7FC018581813091F080E00F9039
:103A40000F900F900F90DF91CF911F910F91FF90EA
:103A5000EF90DF90CF90BF90AF909F908F900895A0
:103A6000848181FFEBCF83899489A589B689892BCD
:103A70008A2B8B2B09F45FC07F0140E050E0BA0134
:103A8000CF010E9492118823C9F2F701C38CD48C14
:103A90008788908CA18CB28C82E090E0A0E0B0E0AE
:103AA000F60180839183A283B3839E012F5F3F4FF2
:103AB000B501A401C6010E945210882309F4BECFAB
:103AC00000E010E09801B501A401C6010E94B00F0A
:103AD000882309F4B3CF89809A80AB80BC80F6013B
:103AE0008789803119F188EF9FEFAFEFBFE088162B
:103AF0009906AA06BB06C8F2F701178A108E118E26
:103B0000128E138A148A158A168A848180688483A7
:103B100061E0C7010E942D14882309F48FCF40E093
:103B200050E0BA01C7010E94921189CF88EF9FEF40
:103B3000A0E0B0E0DCCF81E082CFCF92DF92EF92C5
:103B4000FF921F93CF93DF93EC0180E2689FF00117
:103B50001124E056F54F9385917161F0842F8274A2
:103B600049F080E0DF91CF911F91FF90EF90DF90BF
:103B7000CF900895142F6A8B8091000290910102DA
:103B8000A0910202B09103028E879F87A88BB98B08
:103B9000C488D588F12CE12C7601DD24CC24CF8A91
:103BA000D88EE98EFA8E828D938DB0E0A0E0AC01C4
:103BB000BD014C295D296E297F294F8B588F698F54
:103BC0007A8F8385887111F5848D958DA68DB78D3B
:103BD0008B8B9C8BAD8BBE8B81E08D83812F8F7007
:103BE0008C831E821F82188619861A861B861C8665
:103BF0001D8681E016FFB6CFCE01DF91CF911F91D8
:103C0000FF90EF90DF90CF900C940A1D803109F067
:103C1000A8CF9E012D5E3F4F8B8D9C8D0E94D310AF
:103C2000882309F49ECF84E0D8CF0F931F93CF93BE
:103C3000DF93EC0188819981009759F02A813B81BB
:103C40002617370730F081E0DF91CF911F910F9158
:103C500008958B016F5F7F4F0E94C450009759F009
:103C6000998388831B830A832C813D81232B59F7F9
:103C7000FC011082E8CF80E0E7CF0F931F93CF9332
:103C8000DF93FC01048115810115110539F4FB0155
:103C90001082DF91CF911F910F91089541505109EA
:103CA0004017510708F48A01EB01FC016081718122
:103CB000A801CE010E943452C00FD11F1882E9CF53
:103CC000CF93DF93FC014481558141155105C1F02B
:103CD0009A016417750708F49B01EC0188819981AA
:103CE000421B530B5D834C83BC01620F731F0E9408
:103CF0003452E881F9818C819D81E80FF91F10828F
:103D0000DF91CF910895FB0101900020E9F73197F1
:103D1000AF01461B570BDC01ED91FC910280F38152
:103D2000E02D19948F929F92AF92BF92EF92FF92E3
:103D30000F931F93CF93DF93CDB7DEB7A1970FB645
:103D4000F894DEBF0FBECDBF7C01FA01CB0119A2F2
:103D5000223008F42AE08E010F5D1F4F822E912C35
:103D6000B12CA12CBF01A50194010E94474FF9017C
:103D7000CA016A300CF5605DD8016E938D01232B6A
:103D8000242B252B79F790E080E0109721F0BD01DE
:103D9000C7010E94831EA1960FB6F894DEBF0FBE26
:103DA000CDBFDF91CF911F910F91FF90EF90BF900A
:103DB000AF909F908F900895695CDECFCF93DF9393
:103DC000AB01BC012AE084EA9CE00E94921EEC0157
:103DD0006AEB73E084EA9CE00E94831E8C0F9D1FB7
:103DE000DF91CF910895242F462F50E070E060E0DE
:103DF0000C94921E8F929F92AF92BF92CF92DF92BD
:103E0000EF92FF920F931F93CF93DF937C01EB010F
:103E10006C0182E0C80ED11C4701E5E08E0E911CBA
:103E200010E000E0F60161916F014AE050E0CE0140
:103E30000E94F31E5C01E881F9810190F081E02D80
:103E40006EE2CE0119958A0D9B1D080F191FC8142B
:103E5000D90441F74AE050E0F7016581CE010E94A4
:103E6000F31E800F911FDF91CF911F910F91FF9053
:103E7000EF90DF90CF90BF90AF909F908F9008957C
:103E80000F931F93CF93DF93EC010E94831E8C014D
:103E90006AEB73E0CE010E94831E800F911FDF91B9
:103EA000CF911F910F9108956DEB73E084EA9CE030
:103EB0000E94401F0FB6F894A89580916000886119
:103EC00080936000109260000FBE08950C94831ED2
:103ED000EF92FF920F931F93CF93DF9361157105BC
:103EE00041F480E0DF91CF911F910F91FF90EF900F
:103EF000089541155105B1F07B01EC010C811D8144
:103F0000040F151FB8010E94151E882351F3288144
:103F100039818C819D81B701820F931F0E941F52AE
:103F20001D830C8381E0DECFCF93DF931F921F921E
:103F3000CDB7DEB769831A8241E050E0BE016F5F02
:103F40007F4F0E94681F0F900F90DF91CF910895CF
:103F5000FB01DC018D919C91009761F06081718182
:103F60006115710539F0448155810E94265221E086
:103F7000892B09F020E0822F0895AF92BF92CF9253
:103F8000DF92EF92FF920F931F93CF93DF9300D0B6
:103F90001F92CDB7DEB78C016B017A0180919D0A2B
:103FA0008333E9F45B016801C40ED51EC016D10647
:103FB000A9F10E94660A8FE00E94D80A812F0E9410
:103FC000D80A802F0E94D80A0F5F1F4F80E00E94FE
:103FD000D80AF50181935F010E945C0AE7CF843320
:103FE00069F50E94660A19830A838F2D8F778B8368
:103FF000EC8264E070E0CE0101960E94420AA701C3
:1040000070E060E0C6010E94E651E114F10421F085
:10401000B701C6010E94420A0E945C0AC7010F90C4
:104020000F900F900F90DF91CF911F910F91FF9004
:10403000EF90DF90CF90BF90AF9008950E94660AF6
:104040000F3F110509F030F419820A831B8263E0E7
:1040500070E0D1CF17FD0BC019820A8333E01695AB
:1040600007953A95E1F7007E08600B83F0CFC80111
:1040700026E0969587952A95E1F7807E19830A8335
:104080000115104C18F480618B83E1CF8861FCCF5F
:104090001F93CF93DF931F92CDB7DEB7182F80E524
:1040A00091E00E94180C812F0E94710A27E0129F54
:1040B000F0011124EB5AF54F22813381377041E032
:1040C00050E0BE016F5F7F4F820F931F0E94BD1FA4
:1040D00089810F90DF91CF911F910895FC01808D10
:1040E000883040F4218D328D232B21F00E9448200E
:1040F00090E008958FEF9FEF0895CF93DF93FC0139
:104100002485283028F08FEF9FEFDF91CF9108951D
:10411000EC010190F081E02D0084F185E02D1995EE
:10412000892B89F38C850E94482090E0EECFCF93B5
:10413000DF931F92CDB7DEB741E050E0BE016F5F65
:104140007F4F0E94BD1F89810F90DF91CF9108950D
:1041500090E080E00C949720CF93DF93C4E1D0E00F
:104160000E94A820882361F061E070E080E090E088
:104170000E9451052197A1F780E0DF91CF9108952A
:1041800081E0FBCF1F93CF93DF931F921F92CDB798
:10419000DEB760E372E080E090E00E9451050E948B
:1041A000040980910402282F30E0F901EA58FC4FFD
:1041B000E491F0E0EE0FFF1FEE5BFC4F4591549150
:1041C0005093E3094093E209F901E154FC4FE49173
:1041D000E093E10961E00E949F030E945C0A80E590
:1041E00091E00E94180C84E380939D0A80E80E946D
:1041F0008D0B0E94AC20882391F188E00E948D0BEA
:104200000E94A820883059F580E10E948D0B0E9401
:10421000A820803121F580E00E948D0B0E94A8200B
:10422000182F81111CC08FE190E00E9497208330ED
:10423000B1F480E48093E40942E06EE170E0812F04
:104240000E94DD0B42E06FE170E0812F0E94DD0BE8
:104250001F5F183089F781E080934E0A64C087E3BE
:1042600080939D0A80E80E948D0B0E94AC208823D9
:10427000F9F088E00E948D0B0E94A8208830C1F4DC
:1042800080E10E948D0B0E94A820182F803181F4BC
:1042900080E00E948D0B0E94A820811109C089E353
:1042A00090E00E949720843019F41093E409D3CF52
:1042B00083E380939D0A80E80E948D0B0E94AC20CE
:1042C000882371F180E10E948D0B0E94A82080312B
:1042D00039F582E10E948D0B0E94A820823101F500
:1042E00080E00E948D0B0E94A820811119C084E0FB
:1042F0008093E40915E51A8341E050E0BE016E5F4A
:104300007F4F8BE190E00E94DF0A198341E050E08B
:10431000BE016F5F7F4F8AE190E00E94DF0A9BCF72
:1043200010929D0A80E00F900F90DF91CF911F9126
:104330000895CF92DF92EF92FF920F931F93CF9346
:10434000DF93EC016B018A01790180914E0A882389
:10435000E9F180E591E00E94180C46E050E06FE43E
:104360007AE089E090E00E94DF0ABE016E5F7F4F35
:1043700044E050E08FE090E00E94DF0AB8016E5FF9
:104380007F4F44E050E081E090E00E94DF0AB701F7
:104390006E5F7F4F44E050E085E090E00E94DF0ACE
:1043A000F60182819381A481B5818093280F909337
:1043B000290FA0932A0FB0932B0FDF91CF911F915C
:1043C0000F91FF90EF90DF90CF9008950E94C22050
:1043D000882399F3BECF2091E40930E0322F2227C1
:1043E000620F731F90E0982F8827860F971F0C94F9
:1043F0009720CF93C82F462F61E070E00E94DD0B1D
:1044000061E070E08C2F0E94EB218111F9CFCF91F8
:104410000895CF93C82F80E591E00E94180C68E0C2
:1044200070E08C2FCF910C94F921CF93C82F80E5A9
:1044300091E00E94180C60E170E08C2FCF910C94F9
:10444000F921CF93DF93EC01888D883020F40E940E
:10445000152288E0888FDF91CF91089563E070E0A6
:104460000C94EB21CF93C82F80E591E00E94180CAB
:104470008C2FCF910C942E22EF92FF920F931F93CB
:10448000CF93DF937C0180919D0AD4E0833309F0C0
:10449000D8E00DE81AE0C0E0F801219131918F01D8
:1044A000F701848195812817390729F0CF5FDC1344
:1044B000F3CF80E006C08C2F0E9432228431B1F706
:1044C00081E0DF91CF911F910F91FF90EF900895C0
:1044D000CF93DF93EC018C858830D0F40E94322298
:1044E000843189F0882379F0883169F021E08C31BA
:1044F00059F4E881F9810084F185E02DCE01199508
:1045000021E0892B09F420E0822FDF91CF910895DB
:1045100080E0FBCFCF92DF92EF92FF92CF93DF93B9
:10452000EC018C85883068F40E9409220E94830582
:104530006B017C018C850E943222811109C088E0C8
:104540008C87DF91CF91FF90EF90DF90CF9008950F
:1045500061E070E080E090E00E9451050E948305D8
:10456000AB01BC014C195D096E097F098D859E85E3
:10457000B0E0A0E0481759076A077B07D8F28C859E
:104580000E941522DCCFCF93FC01C08D80E591E025
:104590000E94180C60E270E08C2F0E94F92162E00A
:1045A00070E08C2F0E94EB2184FD16C062E070E069
:1045B0008C2F0E94EB2183FF0AC048E162E070E08B
:1045C0008C2F0E94DD0B80E090E0CF91089580E574
:1045D00091E00E94180CE3CF40E162E070E08C2F84
:1045E0000E94DD0B81E0F0CFDA01E091E409F0E018
:1045F000FE2FEE27E60FF71F90E0982F8827A901DE
:10460000BD018E0F9F1F0C94BD1F8F929F92AF9282
:10461000BF92CF92DF92EF92FF920F931F93CF93AF
:10462000DF93CDB7DEB760970FB6F894DEBF0FBE4D
:10463000CDBF7C0190919D0A911115C018E0812F8A
:1046400060960FB6F894DEBF0FBECDBFDF91CF915D
:104650001F910F91FF90EF90DF90CF90BF90AF90A0
:104660009F908F90089508E0933309F404E06B0164
:1046700080E591E00E94180C9E012F5F3F4F590189
:10468000490110E0812F0E942E22F40181934F01F5
:104690008823C1F01F5F0113F5CF00E0F501819180
:1046A0005F018D3149F0883139F08A51823020F034
:1046B0000F5F1013F3CFC2CF60E170E0802F0E9434
:1046C000F921102FA12EB12CF501EE0FFF1FE3579A
:1046D000F54F1182108283EE93E00197F1F742E8E3
:1046E00070E060E0812F0E94DD0B4FEF62E070E030
:1046F000812F0E94DD0BB601C114D10491F4809189
:1047000005029091060201968115F0EC9F0708F4CE
:104710005CC090930602809305026091050270913F
:104720000602812F0E94C70B86E0EDE0F2E0DE0179
:10473000199601900D928A95E1F7F70183818F77A1
:104740008C8784818D8785818E87A7014E5F5F4F1F
:1047500024E030E06CE070E0812F0E94A00BB601F5
:10476000812F0E94B10B26E030E0AE01475F5F4F22
:1047700066E070E0812F0E94A00B61E070E0812F65
:104780000E94F92127E02A9DC0012B9D900D112444
:104790009C012B5A354F7901F9011182108222E0D8
:1047A00030E0AE01415F5F4F68E270E0812F0E9410
:1047B000F4228F859889982789279827F701938372
:1047C00082831682158214823ACF80E090ECA1CFCA
:1047D000CF92DF92EF92FF920F931F93CF93DF93CD
:1047E00000D000D0CDB7DEB78C016B017A01FC019F
:1047F000808D883010F40E94152288EA93E09A8315
:104800008983F60182819381A481B5818B839C8306
:10481000AD83BE83B701CE0101960E940523F80146
:10482000808F8830A0F4F586E486128E118E81E0A8
:1048300026960FB6F894DEBF0FBECDBFDF91CF91A5
:104840001F910F91FF90EF90DF90CF90089580E03F
:10485000EFCF7F928F929F92AF92BF92CF92DF92D3
:10486000EF92FF920F931F93CF93DF931F921F92AC
:10487000CDB7DEB7782E8B014A01590122E030E036
:10488000AE014F5F5F4F64E270E00E94F422E98066
:10489000FA80FE24EF24FE24E00EF11E970137700B
:1048A00040919D0A072D10E0433309F042C0085F94
:1048B0001F4F102F0027110F110F110FC901800F6B
:1048C000911F4733C9F1A9014A0D5B1D4130584082
:1048D00098F160E078E06B01C21AD30AA601B40136
:1048E0000E94DF0AA5014C195D09B4016C0D7D1D04
:1048F000C8010E94DF0AEA0CFB1CF982EA8222E06E
:1049000030E0AE014F5F5F4F64E270E0872D0E94A0
:10491000A00B0F900F90DF91CF911F910F91FF90FF
:10492000EF90DF90CF90BF90AF909F908F907F904F
:104930000895005F1F4FBDCFA501B401DACFEF92FC
:10494000FF921F93CF93DF931F921F92CDB7DEB7D5
:10495000182F22E030E0AE014F5F5F4F60E270E061
:104960000E94F422E980FA80FE24EF24FE2422E053
:1049700030E0AE014F5F5F4F60E270E0812F0E9438
:10498000F42289819A81982789279827E816F906C1
:1049900089F487E0189FF0011124EB5AF54FF58256
:1049A000E482C7010F900F90DF91CF911F91FF908C
:1049B000EF9008957C01DBCF1F93CF93DF93182FE7
:1049C00080E591E00E94180C812F0E949F24EC0149
:1049D000812F0E942E22873121F08C3111F0D0E0FE
:1049E000C0E0CE01DF91CF911F910895CF93DF9367
:1049F000EC018C85883060F40E943222873111F0FE
:104A00008C3131F48C850E94DC248115984088F328
:104A1000DF91CF910895FC018485883010F40C94C7
:104A2000DC2490E080E00895CF92DF92EF92FF9235
:104A30001F93CF93DF93182F7B01EA014130584039
:104A400010F0C0E0D8E080E591E00E94180C812FC2
:104A50000E949F246C01812F0E942E22873111F029
:104A60008C3121F5CC16DD0670F380E591E00E94D3
:104A7000180C9E01A70170E060E0812F0E9429249C
:104A800060E270E0812F0E94F92162E070E0812FE6
:104A90000E94EB2184FD0DC0812F0E942E228823CD
:104AA000B9F080E591E00E94180CEFCFD0E0C0E0B3
:104AB000DCCF40E162E070E0812F0E94DD0BCE018F
:104AC000DF91CF911F91FF90EF90DF90CF900895ED
:104AD000D0E0C0E0F4CF0F931F93CF93DF938C010E
:104AE000EA01FC018485883048F40E941425892B52
:104AF00039F481E090E0F80193838283D0E0C0E054
:104B0000CE01DF91CF911F910F9108959F92AF92A7
:104B1000BF92CF92DF92EF92FF920F931F93CF93AA
:104B2000DF938C015B01942EE52EFC01C688D788AB
:104B3000F08C80E591E00E94180C8F2D0E949F243C
:104B4000C92DDE2D8C179D0708F4EC019E01A501EF
:104B5000B6018F2D0E942924F801868997898C0F30
:104B60009D1F978B868BCE01DF91CF911F910F9167
:104B7000FF90EF90DF90CF90BF90AF909F900895FF
:104B8000FF920F931F93CF93DF931F921F92CDB786
:104B9000DEB7F82E22E030E0AE014F5F5F4F66E2F5
:104BA00070E00E94F42209811A8110270127102742
:104BB00022E030E0AE014F5F5F4F66E270E08F2D84
:104BC0000E94F42289819A819827892798270817BB
:104BD000190749F4C8010F900F90DF91CF911F91F1
:104BE0000F91FF9008958C01E3CF1F93CF93DF9334
:104BF000182F87E0189FE0011124CB5AD54F8881E8
:104C00009981009761F480E591E00E94180C812F52
:104C10000E94C0252E81821B910999838883DF9190
:104C2000CF911F9108959F92AF92BF92CF92DF9242
:104C3000EF92FF920F931F93CF93DF93EC017B01D1
:104C400080919D0A811121C01B821A8288EE93E017
:104C5000A0E0B0E08C839D83AE83BF8388E293E0C5
:104C60009983888388E08C8788EE93E09E878D8780
:104C7000CE01DF91CF911F910F91FF90EF90DF90C8
:104C8000CF90BF90AF909F90089534E0932E8333E0
:104C900011F028E0922E8DE8C82E8AE0D82E10E080
:104CA00098E0B92EA12CD6012D913D916D01F7010F
:104CB000848195812817390791F4812F0E9432222F
:104CC000082F873111F08C3139F5812F0E94F5259D
:104CD000892B59F50C3119F4812F0E9409221F5F8D
:104CE0009112E1CFA11008C0D701ED91FC91008491
:104CF000F185E02DC70119951B821A8288EE93E099
:104D0000A0E0B0E08C839D83AE83BF8388E293E014
:104D100099838883BC86A8CF843149F08111DFCF85
:104D2000F601329711821082DACFB12ED8CFAA24A1
:104D3000A394D5CF8F929F92AF92BF92CF92DF92E2
:104D4000EF92FF920F931F93CF93DF93CDB7DEB710
:104D50002F970FB6F894DEBF0FBECDBF5C014B019D
:104D60007A0180919D0A8823C9F104E0833309F018
:104D700008E0B501CE0101960E9413268DE8C82EE9
:104D80008AE0D82E10E0F601219131916F01F501F2
:104D9000848195812817390751F4812F0E9432228E
:104DA000873129F4A701B401812F0E9414251F5FC8
:104DB0000113E9CFC7012F960FB6F894DEBF0FBEDF
:104DC000CDBFDF91CF911F910F91FF90EF90DF90BA
:104DD000CF90BF90AF909F908F900895F12CE12CD1
:104DE000E9CFFC018485883010F40C94F52590E01F
:104DF00080E008954F925F927F928F929F92AF9240
:104E0000BF92CF92DF92EF92FF920F931F93CF93B7
:104E1000DF931F921F92CDB7DEB7782E6B014A0148
:104E2000A82EB12C27E0829FC0011124FC01EB5A6F
:104E3000F54F7F010081118180E591E00E94180CFF
:104E40000815190554F4872D0E94C025F701268105
:104E50008C01021B1109118300830115110519F53D
:104E6000872D0E942E22843159F0882349F001E0D9
:104E700010E08C3111F410E000E01195019511095A
:104E8000C8010F900F90DF91CF911F910F91FF906C
:104E9000EF90DF90CF90BF90AF909F908F907F90DA
:104EA0005F904F900895801691060CF4840187E07E
:104EB0008A9DF0018B9DF00D1124EB5AF54FE28095
:104EC000F380C114D10451F12701F7E05F22872D4F
:104ED0000E94710A840D951D20919D0A273309F4C3
:104EE00053C09801240D351D2130384008F44CC0C2
:104EF00020E038E0490184189508A401B6010E9419
:104F0000BD1F2601480C591C6801C818D908872DF7
:104F10000E94710AA601B2010E94BD1FE00EF11E9F
:104F200087E08A9DF0018B9DF00D1124EB5AF54F1F
:104F3000F382E28220813181201B310B3183208377
:104F40008681800F912F911D8A3F910510F4232BAC
:104F5000F1F487E08A9DF0018B9DF00D1124EB5A4E
:104F6000F54F1682F982EA8222E030E0AE014F5F0F
:104F70005F4F68E270E0872D0E94A00B60E470E054
:104F8000872D0E94F9217CCFA801B601C5CF868369
:104F900077CFCF93DF93FC01218D328D2115310521
:104FA00029F48FEF9FEFDF91CF910895EC01808D71
:104FB0004217530708F0A9010E94FA26181619068D
:104FC00084F7298D3A8D281B390B3A8F298FEBCF27
:104FD0000F931F93CF93DF931F92CDB7DEB7FC01E2
:104FE000218D328D232B41F48FEF9FEF0F90DF91B6
:104FF000CF911F910F9108958C0141E050E0BE01C7
:105000006F5F7F4FFC01808D0E94FA2618161906EB
:105010005CF7F801818D928D0197928F818F898144
:1050200090E0E4CFCF93DF931F92CDB7DEB741E09E
:1050300050E0BE016F5F7F4FFC0184850E94FA261D
:105040001816190634F4898190E00F90DF91CF9102
:1050500008958FEF9FEFF9CF0F931F93CF93DF93B7
:10506000EC010E948305688779878A879B87CE0138
:105070000E94122897FF15C00E9483050885198594
:105080002A853B85601B710B820B930B0C811D8164
:105090002E813F81601771078207930740F38FEFDE
:1050A0009FEFDF91CF911F910F9108958F929F9263
:1050B000AF92BF92CF92DF92EF92FF92CF93DF93A6
:1050C000EC014A015B01C12CD12C7601CE010E947A
:1050D0006822882399F0C814D904EA04FB0474F404
:1050E000CE010E94F126892B89F38FEFC81AD80AC6
:1050F000E80AF80ACE010E941228E8CFDF91CF918A
:10510000FF90EF90DF90CF90BF90AF909F908F90E7
:105110000895EF92FF920F931F93CF93DF93EC01CB
:105120007B018A01CE010E94F126892B21F0CE015C
:105130000E941228F7CF60EE73E0CE010E94661F36
:105140002AE0A7010F2C000C660B770BCE010E9402
:10515000921E68EE73E0CE010E94661FB801CE0178
:105160000E94401F6AEE73E0CE010E94401F6CEF68
:1051700073E0CE010E94401F65E174E0CE010E9401
:10518000661FF80101900020E9F73197E01BF10B51
:10519000AF0170E060E02AE0CE010E94921E6AEB4F
:1051A00073E0CE010E94831E6AEB73E0CE010E9481
:1051B000831EB801CE010E94661F64EF71E080E09B
:1051C00090E00E945105CE010E948A2288ECE816E8
:1051D000F10479F0E0917714F0917814309749F068
:1051E000B801C701DF91CF911F910F91FF90EF9010
:1051F0001994DF91CF911F910F91FF90EF90089537
:10520000EF92FF920F931F93CF93DF93CDB7DEB74B
:105210002F970FB6F894DEBF0FBECDBF6DED7FE0C8
:10522000CE0101960E9413268D85883068F02F9656
:105230000FB6F894DEBF0FBECDBFDF91CF911F91A7
:105240000F91FF90EF90089511E0CE0101960E941A
:105250006822882309F496C1CE0101960E94F126A6
:10526000892B99F3CE0101960E9412288A3009F009
:1052700098C1112349F366E274E0CE0101960E94C1
:10528000401F66E374E0CE0101960E94401F6AEE63
:1052900073E0CE0101960E94401F6EE474E0CE01DF
:1052A00001960E94401F6AEB73E0CE0101960E94B6
:1052B000831E69E574E0CE0101960E94401F69E6F5
:1052C00074E0CE0101960E94401F60E774E0CE01B9
:1052D00001960E94661F65E774E0CE0101960E9468
:1052E000661F60E874E0CE0101960E94401F67E8E7
:1052F00074E0CE0101960E94661F8FE4E82E8AE0DA
:10530000F82E10E0F70161917F0140E150E0CE01FD
:1053100001960E94F31E153029F06DE2CE01019630
:105320000E94B60A1F5F163069F760E874E0CE018C
:1053300001960E94401F6CE874E0CE0101960E9425
:10534000661F68E27AE0CE0101960E94661F60E85F
:1053500074E0CE0101960E94401FE0904509EE0CDA
:10536000EE0CEE0C80914609880F880FE80E8091B4
:105370004809E80E80914709880FE80EF090490926
:10538000FF0CFF0CFF0C80914A09880F880FF80E64
:1053900080914C09F80E80914B09880FF80E00910E
:1053A0004D09000F000F000F80914E09880F880FE4
:1053B000080F80915009080F80914F09880F080F3E
:1053C00010915109110F110F110F80915209880F7F
:1053D000880F180F80915409180F80915309880F76
:1053E000180F61E974E0CE0101960E94661F40E14A
:1053F00050E06E2DCE0101960E94F31E40E150E078
:105400006F2DCE0101960E94F31E40E150E0602F07
:10541000CE0101960E94F31E40E150E0612FCE01C3
:1054200001960E94F31E60E874E0CE0101960E948E
:10543000401F00913509000F000F000F80913609C1
:10544000880F880F080F80913809080F809137095D
:10545000880F080F10913909110F110F110F80914A
:105460003A09880F880F180F80913C09180F809116
:105470003B09880F180F66E974E0CE0101960E947F
:10548000661F40E150E0602FCE0101960E94F31E9E
:1054900040E150E0612FCE0101960E94F31E109171
:1054A0004109110F110F110F80914209880F880FC8
:1054B000180F80914409180F80914309880F180F25
:1054C00060913D09660F660F660F80913E09880F57
:1054D000880F680F80914009680F80913F09880FFD
:1054E000680F40E150E0CE0101960E94F31E40E1BA
:1054F00050E0612FCE0101960E94F31E60E874E037
:10550000CE0101960E94401F6BE974E0CE01019626
:105510000E94661F60E874E0CE0101960E94401F61
:10552000E1ECF7E00191011138C087E0E63CF807B3
:10553000C9F7EBEBF7E01191111131C087E0E03CC6
:10554000F807C9F762EA74E0CE0101960E94661F6F
:1055500040E150E0602FCE0101960E94F31E40E131
:1055600050E0612FCE0101960E94F31E60E874E0C6
:10557000CE0101960E94401F67EA74E0CE010196B9
:105580000E94401F61E070E080E090E00E945105C1
:10559000CE0101960E948A224ACE01E0CACF11E0D4
:1055A000D1CF8D3009F451CE10E04FCEFC0184856F
:1055B000883010F40C94FA2690E080E008958F92E1
:1055C0009F92AF92BF92CF92DF92EF92FF920F9392
:1055D0001F93CF93DF9300D000D000D01F92CDB7A0
:1055E000DEB790919D0A911115C018E0812F2A967F
:1055F0000FB6F894DEBF0FBECDBFDF91CF911F91E4
:105600000F91FF90EF90DF90CF90BF90AF909F9061
:105610008F90089528E0F22E933311F494E0F92E40
:105620006B01082F80E591E00E94180C9E012F5F0E
:105630003F4F5901490110E0812F0E942E22F401B1
:1056400081934F018823C1F01F5FF112F5CFF12C38
:10565000F50191915F019D3149F0983139F09A51EE
:10566000923020F0F3941F11F3CFBFCF60E170E0D0
:105670008F2D0E94F9211F2DE12EF12CF701EE0F45
:10568000FF1FE357F54F1182108283EE93E00197DD
:10569000F1F7402F70E060E0812F0E94DD0B4FEFAB
:1056A00062E070E0812F0E94DD0BB601CD2889F405
:1056B000809105029091060201968115F0EC9F07FA
:1056C00098F1909306028093050260910502709113
:1056D0000602812F0E94C70B61E070E0812F0E94BB
:1056E000F92127E02E9DC0012F9D900D11249C01D2
:1056F0002B5A354F7901F9011182108222E030E0F6
:10570000AE01475F5F4F68E270E0812F0E94F42294
:1057100089859A85982789279827F701938382831B
:1057200016821582148262CF80E090ECCACF0F936C
:105730001F93CF93DF93EC018B01888D883010F499
:105740000E941522B80182E00E94DF2A888F8830EB
:1057500050F41D870C871A8E198E81E0DF91CF914E
:105760001F910F91089580E0F9CF0F931F93CF936E
:105770008C01FC016481758181E20E94DF2AC82FBF
:105780008830F8F480E591E00E94180C8C2F0E947C
:105790002E22833131F08C2FCF911F910F910C94D9
:1057A000092262E070E08C2F0E94F921F8018481C7
:1057B0009581EC2FF0E0EE0FFF1FE357F54F91833B
:1057C0008083CF911F910F910895CF92DF92EF9236
:1057D000FF921F93CF93DF93EC017B016A018C85CD
:1057E000883048F40E943222882319F08C850E9468
:1057F000092288E08C87F70182819381A481B58199
:105800000097A105B10551F490E080E0DF91CF91C0
:105810001F91FF90EF90DF90CF9008958F3F9F4FA3
:10582000AF4FBF4F89F370E060E081E20E94DF2A52
:10583000182F8C87883040F780E591E00E94180C83
:10584000A7014E5F5F4F24E030E06CE070E0812FF5
:105850000E94A00BB601812F0E94B10B64E070E0A2
:10586000812F0E94F9210E9483056B017C018C85A8
:105870000E943222873111F18C3101F1882321F20B
:105880000E948305AB01BC014C195D096E097F09BB
:105890008D859E85B0E0A0E084179507A607B70721
:1058A00038F061E070E080E090E00E945105DFCFC9
:1058B0008C850E94152288E08C87A6CF81E090E03D
:1058C000A5CF0F931F93CF93DF931F921F92CDB756
:1058D000DEB7FC0124852830E0F48C0180E591E0FE
:1058E0000E94180C22E030E0AE014F5F5F4F60E194
:1058F00070E0F80184850E94F42289819A819827BA
:10590000892798270F900F90DF91CF911F910F91CA
:10591000089590E080E0F6CF0F931F93CF93DF932D
:105920001F921F92CDB7DEB7FC0124852830E0F42A
:105930008C0180E591E00E94180C22E030E0AE017D
:105940004F5F5F4F64E070E0F80184850E94F422AD
:1059500089819A819827892798270F900F90DF9146
:10596000CF911F910F91089590E080E0F6CF0E94B3
:10597000A5510F931F93CF93DF9300D000D01F92B8
:105980001F92CDB7DEB78C01D80159964D915C912D
:105990005A974115510551F0ED91FC91048CF58D0C
:1059A000E02D70E060E0C8011995EECFF801808D20
:1059B0000E94F525892BB1F148E050E0BE016F5FF0
:1059C0007F4FD80158968C910E94FA261816190616
:1059D000F4F4D801509684E0FE01319601900D92C6
:1059E0008A95E1F78D8190E0982F88272E81820F8C
:1059F000911DF801958B848B8F81282F30E0322FF9
:105A000022278885820F932F911D928F818F289650
:105A10000FB6F894DEBF0FBECDBFDF91CF911F91BF
:105A20000F91089590E080E0F2CF4F925F926F92D5
:105A30007F928F929F92AF92BF92CF92DF92EF921E
:105A4000FF920F931F93CF93DF93CDB7DEB763978A
:105A50000FB6F894DEBF0FBECDBF7C016B013A01DB
:105A6000FB0120E090E080E06AE03191332309F40B
:105A700061C040ED430F4A3008F04DC0689FA0015F
:105A8000699F500D1124CA01C097830F911D37FDE6
:105A90009A958F3F910549F340F3F7014281538175
:105AA000648175818091340F9091350FA091360FEC
:105AB000B091370F481759076A077B0709F40DC2E1
:105AC0008701085F1F4F0E9483056F7077277C5FF7
:105AD000C8010E94972B813009F004C288EA93E044
